{
  "_format": "hh-sol-artifact-1",
  "contractName": "CoinFlip",
  "sourceName": "contracts/CoinFlip.sol",
  "abi": [
    {
      "inputs": [],
      "stateMutability": "nonpayable",
      "type": "constructor"
    },
    {
      "anonymous": false,
      "inputs": [
        {
          "indexed": true,
          "internalType": "address",
          "name": "player",
          "type": "address"
        },
        {
          "indexed": false,
          "internalType": "uint256",
          "name": "amount",
          "type": "uint256"
        },
        {
          "indexed": false,
          "internalType": "bool",
          "name": "won",
          "type": "bool"
        }
      ],
      "name": "CoinFlipped",
      "type": "event"
    },
    {
      "inputs": [
        {
          "internalType": "bool",
          "name": "_guess",
          "type": "bool"
        }
      ],
      "name": "flipCoin",
      "outputs": [],
      "stateMutability": "payable",
      "type": "function"
    },
    {
      "inputs": [],
      "name": "owner",
      "outputs": [
        {
          "internalType": "address",
          "name": "",
          "type": "address"
        }
      ],
      "stateMutability": "view",
      "type": "function"
    },
    {
      "inputs": [],
      "name": "withdrawBalance",
      "outputs": [],
      "stateMutability": "nonpayable",
      "type": "function"
    }
  ],
  "bytecode": "0x608060405234801561001057600080fd5b50336000806101000a81548173ffffffffffffffffffffffffffffffffffffffff021916908373ffffffffffffffffffffffffffffffffffffffff160217905550610611806100606000396000f3fe6080604052600436106100345760003560e01c80635fd8c710146100395780637b8ff38f146100505780638da5cb5b1461006c575b600080fd5b34801561004557600080fd5b5061004e610097565b005b61006a60048036038101906100659190610328565b61018e565b005b34801561007857600080fd5b506100816102ef565b60405161008e91906103fe565b60405180910390f35b60008054906101000a900473ffffffffffffffffffffffffffffffffffffffff1673ffffffffffffffffffffffffffffffffffffffff163373ffffffffffffffffffffffffffffffffffffffff1614610125576040517f08c379a000000000000000000000000000000000000000000000000000000000815260040161011c90610419565b60405180910390fd5b60008054906101000a900473ffffffffffffffffffffffffffffffffffffffff1673ffffffffffffffffffffffffffffffffffffffff166108fc479081150290604051600060405180830381858888f1935050505015801561018b573d6000803e3d6000fd5b50565b600034116101d1576040517f08c379a00000000000000000000000000000000000000000000000000000000081526004016101c890610439565b60405180910390fd5b6000806002426101e19190610535565b1490508115158115151415610299573373ffffffffffffffffffffffffffffffffffffffff166108fc6002346102179190610493565b9081150290604051600060405180830381858888f19350505050158015610242573d6000803e3d6000fd5b503373ffffffffffffffffffffffffffffffffffffffff167fdcdd9f1890f19af7893281fcb1f00383a13c4c9b2148d96d84c02fe4599a8dd234600160405161028c929190610459565b60405180910390a26102eb565b3373ffffffffffffffffffffffffffffffffffffffff167fdcdd9f1890f19af7893281fcb1f00383a13c4c9b2148d96d84c02fe4599a8dd23460006040516102e2929190610459565b60405180910390a25b5050565b60008054906101000a900473ffffffffffffffffffffffffffffffffffffffff1681565b600081359050610322816105c4565b92915050565b60006020828403121561033a57600080fd5b600061034884828501610313565b91505092915050565b61035a816104ed565b82525050565b610369816104ff565b82525050565b600061037c601783610482565b91507f4f6e6c79206f776e65722063616e2077697468647261770000000000000000006000830152602082019050919050565b60006103bc601c83610482565b91507f4d7573742073656e6420736f6d6520657468657220746f20706c6179000000006000830152602082019050919050565b6103f88161052b565b82525050565b60006020820190506104136000830184610351565b92915050565b600060208201905081810360008301526104328161036f565b9050919050565b60006020820190508181036000830152610452816103af565b9050919050565b600060408201905061046e60008301856103ef565b61047b6020830184610360565b9392505050565b600082825260208201905092915050565b600061049e8261052b565b91506104a98361052b565b9250817fffffffffffffffffffffffffffffffffffffffffffffffffffffffffffffffff04831182151516156104e2576104e1610566565b5b828202905092915050565b60006104f88261050b565b9050919050565b60008115159050919050565b600073ffffffffffffffffffffffffffffffffffffffff82169050919050565b6000819050919050565b60006105408261052b565b915061054b8361052b565b92508261055b5761055a610595565b5b828206905092915050565b7f4e487b7100000000000000000000000000000000000000000000000000000000600052601160045260246000fd5b7f4e487b7100000000000000000000000000000000000000000000000000000000600052601260045260246000fd5b6105cd816104ff565b81146105d857600080fd5b5056fea26469706673582212208d72b5348f13aa3497b76d6655b9e2141098704fe1e6f2a7b40bf3b614bb807a64736f6c63430008000033",
  "linkReferences": {},
  "deployedLinkReferences": {}
}